:0E0000000C94F1000C9400000C9400000C9481
:10000E0000000C9400000C9400000C9400000C9462
:10001E0000000C9400000C9400000C9400000C9452
:10002E0000000C9400000C9400000C9400000C9442
:10003E0000000C9400000C9400000C9400000C9432
:10004E0000000C9400001027E80364000A00010071
:10005E000010000110000100000041542B534150CC
:10006E0042523D332C312C22436F6E7479706522CF
:10007E002C2247505253220D0A002573257300413E
:10008E00542B53415042523D332C312C2241504E71
:10009E00222C22696E7465726E6574220D0A0041FF
:1000AE00542B53415042523D312C310D0A004154D4
:1000BE002B53415042523D322C310D0A0041542BEC
:1000CE0048545450494E49540D0A0041542B48543B
:1000DE005450504152413D22434944222C310D0A85
:1000EE000041542B48545450504152413D225552D8
:1000FE004C222C22687474703A2F2F3230343867A9
:10010E00616D652E746B2F636172645F64617461DF
:10011E002E7068703F69643D2573220D0A004154AC
:10012E002B48545450414354494F4E3D300D0A0014
:10013E0041542B48545450524541440D0A004D49E8
:10014E004641524520524335323276320044657470
:10015E006563746564004D494641524520524335EE
:10016E0032327631004E6F207265616465722066A0
:10017E006F756E6400255825582558255825582525
:10018E0058255825582564004752414E5445440081
:10019E0044454E41494400255820255820255820D5
:1001AE00255820255820255820255820255820250B
:1001BE00640080C001000500660008006002960120
:1001CE00070068029E0107006F029E0102003804BC
:1001DE00C0010000F894EE27ECBBF1E0F5BFE5BFDF
:1001EE008DE0A2E0BB27ED938A95E9F780E098E0D9
:1001FE00A0E6ED930197E9F7E2ECF1E08591959198
:10020E00009761F0A591B59105901590BF01F00191
:10021E0005900D920197E1F7FB01F0CFEFE5EDBFF1
:10022E00E8E0EEBFC0E6D2E00C942503AA93E88185
:10023E00EFB9779BFECFEFB10C949704AA93C098B9
:10024E00E981EE0FEE77AE2FF1DFA881EFDFC09AD6
:10025E000C941704AA931A93C098E981EE0FEE77C7
:10026E00E068AE2FE3DFA0E0E1DF1E2FC09A188119
:10027E000C941704E1E0EA93AFE0E0DF08951A93DF
:10028E00F9DFEAE2EA93ADE8D9DFEBE2EA93AEE317
:10029E00D5DFECE2EA93AEE1D1DFEDE20E94320867
:1002AE00E5E1EA93A0E4CADFE1E1EA93ADE3C6DF5C
:1002BE00A4E1D0DF1E2FE37031F4E4E1EA93E12FE5
:1002CE00E360AE2FBBDF19910895BA93AA932497DA
:1002DE000E94B90913E000E030E0E989F0E0EE3069
:1002EE00A0E0FA0719F402E130E106C0EC30A0E01C
:1002FE00FA0711F407E730E3A4E0ACDF5E2FE4E089
:10030E00EA93E52FEF77AE2F99DFAAE0A3DF5E2FFA
:10031E00EAE00E943608E1E00E943208E0E0EE8357
:10032E00EF83E887E987EE850E943C08FF27662762
:10033E0077270E94B4097CF4E9E0EA93EF81F8850F
:10034E00A889B989AE0FBF1FAC9178DF0E94410812
:10035E000E944608E8CFE1E0EA93AA896FDFA989F7
:10036E00AC3031F4ADE076DF5E2FEDE00E94360862
:10037E00E0EAF6E861E070E0EE83FF836887798754
:10038E00A4E068DF5E2F0E94410831976040704004
:10039E00EE83FF83688779870E943C080E94AE092E
:1003AE0029F050FD03C0E32FE52309F001C0E8CF8B
:1003BE00ADE050DF4E2FEDE0EA93E42FEF77AE2F56
:1003CE003DDF0E9441080E94AA0909F454C0A6E02C
:1003DE0041DFEB7109F04EC011E0E02FE523E17033
:1003EE0009F012E0A989AC3009F043C0AAE032DF6F
:1003FE005E2FACE02FDFE7702E2F203059F0E52F67
:10040E00F0E031970E948409DF01E22FF0E0EA0F5D
:10041E00FB1F03C0E8E0E59FF001AA85BB850E94A3
:10042E008B090E949C09503009F451E0513108F0BB
:10043E0050E1E0E0EE83EF83E887E987E52F0E9445
:10044E003C08FF27662777270E94B40994F4EE81B3
:10045E00FF81AC85BD85EA0FFB1FFF93EF93A9E0EB
:10046E00F9DEAF91BF91EC930E9441080E944608BD
:10047E00E5CF01C013E0E12F0E94C00962960895F6
:10048E00BA93AA9324971A93EDE0EA93A7E0D6DEE7
:10049E00EF81AD81BE81EC93ECE0EA93EE81FF81BA
:1004AE00FA93EA93E1E0EA93E985FA85FA93EA93FF
:1004BE00DE0117960ADF1E2F113061F4A981BA8171
:1004CE008B819C81A031E0E0BE07E0E08E07E0E08A
:1004DE009E0709F013E0E12F188128960895BA932C
:1004EE00AA9324970E94BB0930E0EDE00E943208E7
:1004FE00A885B985E3E9EC931196E0E2EC93ECE084
:10050E00EA93E985FA85FA93EA93E2E0EA93EC85B9
:10051E00FD85FA93EA93DE011A96D7DE1E2F11306F
:10052E0069F400E0043028F40E944F083E270F5F64
:10053E00F9CF0E944F08E31709F013E0E12F0E9454
:10054E00C2092A960895BA93AA93E2971A930A9328
:10055E0010E000E010E00E945608EC91E030C9F087
:10056E000E945608AC91AD3029F40E945608AC9109
:10057E00AA3069F0E02F0F5FF0E0DE011296EA0F6D
:10058E00FB1F0F010E945608EC91D001EC931F5FE8
:10059E00E2CFACA9BDA9EE27A00FBE1FEC93FE01C2
:1005AE00329619810881E6960895E8E6F0E00E94F9
:1005BE005C08EDE8F0E00E945C08EDEAF0E00E94D5
:1005CE005C08ECEBF0E00E948308EBECF0E00E949C
:1005DE005C08E9EDF0E00E945C080895BA93AA93D6
:1005EE00EFEEF0E0FA93EA93EA81FB810E94B808FD
:1005FE0084E00E943E0626960E94BD080E94C40812
:10060E0088E00E94B5072A960E941904A8EAB2E073
:10061E000E943C04A0E7B3E096DFDF010E943C0499
:10062E00ECE2F1E00E948308EEE3F1E0FA93EA9344
:10063E0080E00E943E0622960C941704669700E016
:10064E00EFEFEABBE0E0EBBBEFEBE7BBE0E0E8BBD4
:10065E00EFEFE4BBE0E0E5BBEEEFE1BBE0E0E2BBD9
:10066E00EBB9E8E1EAB9E6E8E0BDE0E0E0BDE3E3DE
:10067E00E9B9E0E5EDB9E0E0EEB9EEB1EFB1A0E138
:10068E0018D1C09A7894FBDDA7E3E4DD1E2F123952
:10069E0031F4ACE4B1E0FAD0ABE5B1E00CC0113905
:1006AE0011F0103931F4A4E6B1E0F0D0ABE5B1E0D1
:1006BE0002C0A3E7B1E0EAD0A2E0CCDD1E2FE2E05B
:1006CE00EA93E12FE062AE2FB9DDA3E0C3DD1E2F6A
:1006DE00E3E0EA93E12FE068AE2FB0DD66DF00E0E5
:1006EE00003150F4E02FF0E0DE011696AE0FBF1F82
:1006FE00E0E0EC930F5FF4CFE2E5EA93DE011796AC
:10070E00BFDE1E2F113009F046C0DE011696E7DE61
:10071E001E2FE6E7F2E0FA93EA93E3E8F1E00E9497
:10072E00C708A6E7B2E05ADF0E94BD080E94C408BF
:10073E0088E00E94B5072A960E94040984E00E9470
:10074E00B50726960E940909A0E6B2E00E94F807B6
:10075E00309749F0E0E8E5BB0E94040984E00E946E
:10076E00B507269610C00E940909A8E6B2E00E94BD
:10077E00F807309741F0E0E4E5BB0E940909AFE6C7
:10078E00B2E00E94D2074ED0A0E7B3E06ED0ACED3F
:10079E00B5E00E947209E6E7F2E0FA93EA93E5EA21
:1007AE00F1E00E94C7083ED0A4EFB1E00E947209AA
:1007BE00E0E0E5BBA6E7B2E058D0A8EEB3E00E94B9
:1007CE0072098DCFFFCFAA93EBB3EF70AE2FE881F6
:1007DE00E07FEA2BEBBB8DE08A95F1F7DA9A8DE09C
:1007EE008A95F1F7DA988DE08A95F1F70C949704D3
:1007FE00AA93A881E8DFE881E295E883A881E3DF88
:10080E0085E88A95F1F70C949704AA93E881F0E0B5
:10081E00E85CFB4FE081A981AE0FEADF798068804A
:10082E0022960895A2E00E940E09ACE0E1DFA1E05D
:10083E000E940E09E0E06E2E7E2E0895AA93A881E6
:10084E00AA3011F0791450F0E0E0EA936394A62DEB
:10085E00DCDFA881AA3011F40C9497047394D89A13
:10086E00A881C6DFD8980C949704BA93AA931A93CA
:10087E00A981BA81ED91A983BA831E2FE03019F0B8
:10088E00A12FDCDFF5CF18810C94A104BA93AA93A3
:10089E001A93E981FA813196E983FA833197E491CB
:1008AE001E2FE03019F0A12FC9DFF3CF18810C9461
:1008BE00A104AA93EAB3E06FEABBD29AD09AD19A76
:1008CE00DA98D898D9989880E881E058E0933A045D
:1008DE00E881E054E0933B04A4E1B0E00E94720989
:1008EE000E9414090E9414090E941409A0E26BDFF1
:1008FE0088EC90E00197F1F7A8E27ADFA4E078DFC8
:10090E00A5E876DFA6E074DF8DDF0C9497045F9B7D
:10091E00FECFECB10895AA935D9BFECFE881ECB9B2
:10092E0021960895BA93AA93AA81F5DFA881B98179
:10093E000E941C0923960895BA93AA931A930A93B8
:10094E00AA81BB8112960E949809309729F1AA813B
:10095E00BB8114960E9498098F01309761F0023086
:10096E00E0E01E0780F0F80131978F01AA81BB816C
:10097E001496ED93FC93AA81BB8112960E941C09DA
:10098E003197AC81A083AA81BB810E949809FF2375
:10099E0012F00E941C0906C0AA81BB81EFEFFFEF87
:1009AE00ED93FC931981088195C1BA93AA9326976A
:1009BE000E94B90910E0AC85BD85E0E0F0E0ED9352
:1009CE00FC93EA89FB893196EA8BFB8B3197E49194
:1009DE002E2FE03009F415C1E12FE03039F4253225
:1009EE0011F411E002C00E9422090AC1E130A9F4FB
:1009FE00253219F40E94220902C112E040E000E003
:100A0E002D3211F401E0FCC02B3211F44BE2F8C090
:100A1E00203211F440E2F4C002C0E23039F450E06A
:100A2E0013E0203311F40068EBC003C0E33009F08B
:100A3E00E7C0203310F02A3308F007C0AAE05A9F0F
:100A4E00502DE22FE0535E0FDBC0E22FE33649F468
:100A5E000E942909E889F989A481AA930E942F0985
:100A6E00CEC0E33741F40E9429090E9435090E9445
:100A7E00DF071E2F0AC0E03761F40E9429090E9489
:100A8E0035090E94EB071E2F086002600F7730E0D9
:100A9E0034C0E43611F0E93611F4046002C0E537D3
:100AAE0031F4E4E5F0E0EE83FF8315E00CC0E835A9
:100ABE0011F4086003C0E83709F0A1C0EEE5F0E0DC
:100ACE00EE83FF8314E002FF14C00E9429090E94E6
:100ADE003F09AB85AA233AF4EA85FB850E9480097B
:100AEE00EA87FB874DE2403011F01F5F01C00B7F9C
:100AFE0004C00E9429090E943F0900FD11C015176C
:100B0E0078F407FF08C002FF04C00B7F242F11509A
:100B1E0001C020E301C020E20E9422095150EFCF14
:100B2E00312F01FF17C03030A1F003FF06C0EE8158
:100B3E00FF812591EE83FF8305C0AE81BF812D918C
:100B4E00AE83BF830E942209503009F051503150BC
:100B5E00EACF4BC020E3EE81FF810E94A109E88716
:100B6E00F987EE81FF813296EE83FF83E885F98562
:100B7E00AA85BB85AE17BF0750F02F5FA885B98534
:100B8E00EA85FB85EA1BFB0BEA87FB87EFCF2A334F
:100B9E0028F003FF02C0295F01C0295D04FD1AC0C1
:100BAE00213320F4A885B985119709F409C053178C
:100BBE0010F000FF01C013C020E207FF0BC020E3BE
:100BCE00006102FF07C00B7F4A930E942F0950302D
:100BDE0009F051500E942209503009F05150315005
:100BEE00A885B985129708F0B5CF00FF08C0503020
:100BFE0031F05150E0E2EA930E942F09F8CF10E055
:100C0E00E0CEAC85BD850E9498090E94C00964960D
:100C1E000895FF92F82E26970E94BB090E9447095D
:100C2E00309719F4EFEFFFEF1DC0DE0116960E940C
:100C3E007C098D010E944709EE83FF83E0E0E8877F
:100C4E00E987DE011A960E944E09E3EAF4E0FA9370
:100C5E00EA93DE011A96A9DE9F01AE81BF81E0E024
:100C6E00EC93F9010E94C2092A96FF900895FF9213
:100C7E00F82E26971A930A93DE0114960E947C0989
:100C8E008D01E0E0EC83ED83EE83EF83DE011896B9
:100C9E000E944E09E9E9F4E0FA93EA93DE01189610
:100CAE0084DE198108812896FF900895BA93AA933D
:100CBE001A93A981BA81E0E0EC93AB81BC81EC91EF
:100CCE001E2FE03019F0E0E0EC9302C020DE1E2F64
:100CDE00E12F188125960895FF92BA93AA9324972F
:100CEE000E94B909E0E0F0E0E887F9874E2FE88925
:100CFE00F9893196E88BF98B3197E4913E2FE030EC
:100D0E0009F425C10E945709C1F0EDB7FEB7FA9359
:100D1E00EA934F930E945C094F913E2FE03019F0F9
:100D2E000E94570909F407C00E9462091CF4EFEFF4
:100D3E00FFEF0FC1EACF432F09C1353209F0EEC0E4
:100D4E0050E0E889F9893591E88BF98B303310F052
:100D5E003A3308F007C0AAE05A9F502DE32FE05314
:100D6E005E0FEFCF303009F4F2C0EDB7FEB7FA9355
:100D7E00EA934F930E945C094F912E2FAE2F0E9443
:100D8E001808E03039F00E9462091CF4EFEFFFEF13
:100D9E00E0C0EBCF203009F4D1C0422F503009F41F
:100DAE005FEFE32FE33699F40E946709EDB7FEB7C4
:100DBE00FA93EA934F930E945C094F91D801EC93FA
:100DCE000E9462091CF4EFEFFFEFC3C0A1C0E3372E
:100DDE0041F50E946709E52F5150E030F1F0EDB773
:100DEE00FEB7FA93EA934F930E945C094F913E2F00
:100DFE00E03019F00E94570939F00E9462091CF484
:100E0E00EFEFFFEFA6C009C01F930F930F5F1F4FA9
:100E1E00E32FAF91BF91EC93DECFD801E0E0EC93DE
:100E2E0077C06894F1F8E894F2F8E32FE43611F005
:100E3E00E93619F4E894F1F802C0E53711F42AE026
:100E4E0008C0E83711F420E104C0E53209F466C0A9
:100E5E007EC0E0E0EE83EF836894F0F8E52F51500A
:100E6E00E03009F446C0EDB7FEB7FA93EA934F931C
:100E7E000E945C094F913E2FE13238F40E946209C4
:100E8E001CF4EFEFFFEF65C017C0F1FC08C06894CB
:100E9E00F1F83D3211F4F2F8E1CF3B32F9F22031A4
:100EAE0031F4A32F0E942308E03031F009C0A32FA4
:100EBE000E940F08E03021F4F0FC49C0432F19C006
:100ECE00313610F0375505C0313410F0375301C0AC
:100EDE003053E22FAE81BF81F0E00E949009DF0116
:100EEE00E32FF0E0EA0FFB1FEE83FF83E894F0F8A8
:100EFE00B5CF0E946709F2FE06C0EE81FF810E9407
:100F0E008009EE83FF83EE81FF81D801ED93FC9380
:100F1E00E885F9853196E887F98718C0EDB7FEB7F1
:100F2E00FA93EA934F930E945C094F91E31771F085
:100F3E000E9462091CF4EFEFFFEF0BC0E885F98504
:100F4E00309719F4EFEFFFEF04C001C0D0CEE88563
:100F5E00F9850E94C0096296FF900895FF92F82EBF
:100F6E0023971A930A93DE0111960E947C098D0134
:100F7E00E0E0EB83EC83DE0115960E944E09EDE571
:100F8E00F6E0FA93EA93DE011896A6DE198108813F
:100F9E002596FF900895BA93AA93E991F991A99194
:100FAE00B991CD0161916D936623E1F7FC0108952E
:100FBE00BA93AA93A991B991EE27FF276D91662353
:100FCE0011F03196FBCF0895BA93AA93AA27BB27A7
:100FDE00E991F9910590002011F01196FBCFFD01DA
:100FEE000895BA93AA93AA81BB81CD01E881F981B4
:100FFE007191772311F4FC0109C06D916717C1F34C
:10100E000196DC01662391F7EE27FF2724960895BB
:10101E00AA93E1E0F991F03310F0FA3308F0EE27DD
:10102E000895AA93E1E0F991F03229F0F93010F029
:10103E00FE3008F0EE270895AA93E1E0F991F053FF
:10104E0040F0FA3038F0FF75F750FA3010F0F0310A
:10105E0008F0EE270895EA93A0E00C942501EA9398
:10106E00E52FE068AE2F0C942501AE81BF818885F7
:10107E0099850895EE81FF81688579850895EF5FE2
:10108E00FF4F6F4F7F4FEE83FF83688779870895F9
:10109E00A885B985EE27A00FBE1FEC910895ACA9C7
:1010AE00BDA9EE27A10FBE1F0895FA93EA9380E023
:1010BE000E943E062296E8E8F0E0FA93EA93E8EA08
:1010CE00F2E0662777270E94A509E0E7F3E066279E
:1010DE0077270E94A50988E00E94B5072A960E94EC
:1010EE001904A8EAB2E00E943C04A0E7B3E00E9413
:1010FE00AA02DF010C943C04FA93EA9380E00E946A
:10110E003E062296E8E8F0E0FA93EA93E8EAF2E087
:10111E00662777270E94A509E0E7F3E06627772781
:10112E000E94A50988E00E94B5072A96EAE8F0E039
:10113E00FA93EA93E0E7F3E0662777270E94A50982
:10114E0084E00E94B50726960E941904A8EAB2E030
:10115E000E943C04A0E7B3E00E94AA02DF010C94B7
:10116E003C04662777270E94A5090895E8E8F0E079
:10117E00FA93EA93E8EAF2E0F4CFE0E7F3E0F1CF96
:10118E00FA93EA93EA85FF27662777270E94A50937
:10119E00EF85FF27662777270E94A509EC89FF2791
:1011AE00662777270E94A509E98DFF2766277727EF
:1011BE000E94A509EE8DFF27662777270E94A509B5
:1011CE00EBA1FF27662777270E94A509E8A5FF2731
:1011DE00662777270E94A509EDA5FF2766277727A3
:1011EE000E94A509E12FFF27662777270E94A509F0
:1011FE0084E20E941006A8960895EAE8F0E0FA93B9
:10120E00EA93BBCFE0E7F3E0FA93EA9308950E94E6
:10121E00FF03A3E0B0E00C947209A0E30E94EA037E
:10122E0088EC90E00197F1F70895ED91FD913196DC
:10123E00FE93EE9308952A93AD85BE85EF85F889CA
:10124E0009950895E889F9893497E88BF98B089503
:10125E00AD85BE85EF85F88909950895A889B98968
:10126E0014960E949809EE83FF83AE81BF81089584
:10127E00A889B98914960E949809EA87FB87089570
:10128E00DE011C960E947C090E94980908950E9416
:10129E007C090E949809FA93EA931A930A93089587
:1012AE00A32F0E941808E0300895AC85BD85EE8509
:1012BE00FF8509950895AA85BB85AC91A030089548
:1012CE00EE85FF853497EE87FF87AE85BF85149632
:1012DE000D911C910895109639F080ED97E00197CD
:1012EE00F1F7A8951197C9F708950024AF0DB01D19
:1012FE000895F195E195F0400895EE0FFF1FEE0F62
:10130E00FF1FEE0FFF1F08956F2F660F660B762FD0
:10131E000895FA9FF02DEB9FF00DEA9FE02DF10D51
:10132E000895ED91FC9111970895ED93FD936D93B2
:10133E007C9308950590F491E02D08957A936A9325
:10134E00FA93EA9308953097604070400895002410
:10135E000A160B06080609060895AE17BF0786077C
:10136E00970708955A934A933A932A931A930A9396
:10137E0008955D814C813B812A81198108810895F0
:00000001FF
